:0A0000000C9430000C9400000C94E6
:10000A0000000C9400000C9400000C9400000C9466
:10001A0000000C9400000C9400000C9400000C9456
:10002A0000000C9400000C9400000C9400000C9446
:10003A0000000C9400000C9400000C9400000C9436
:10004A0000000C9400000C94000000000000040062
:10005A00040054000000F894EE27ECBBF1E0FBBF6B
:10006A00EBBFE5BF8DE0A2E0BB27ED938A95E9F7E8
:10007A0080E094E0A0E6ED930197E9F7E8E5F0E087
:10008A0085919591009761F0A591B591059015908C
:10009A00BF01F00105900D920197E1F7FB01F0CF46
:1000AA00EFE5EDBFE4E0EEBFC0E6D1E00C945D0001
:1000BA00E0E0E5BBEFE0E4BBEEE0E2BBE0E0E1BBA1
:1000CA00819907C0A8E5B2E061D0F20131962F010B
:1000DA00F7CF82990BC0A8E5B2E058D000240414E7
:1000EA0005041CF4F20131972F01F3CF839936C02E
:1000FA00A0E9B1E04BD064147504CCF4A89AA9988D
:10010A00AA9AAB98F30131962BD04614570471F48E
:10011A002BD02FD059F4442455244614570434F4D0
:10012A002ED0062C072809F41FD0F7CFE4CF4614A7
:10013A0057049CF424D04614570471F415D019D0EE
:10014A0059F4442455244614570434F418D0062C80
:10015A00072809F409D0F7CFEACFC8CFB1CFFFCF2C
:10016A003F01A8EEB3E012C0A898A998AA98AB9844
:10017A000895A8E8B3E10AD0461457040895A89848
:10018A00A99AAA98AB9AF3013197EACF109639F057
:10019A00A89580ED97E00197F1F71197C9F70895AF
:00000001FF
